:100000000C9464030C948C030C948C030C948C035C
:100010000C948C030C948C030C948C030C948C0324
:100020000C948C030C948C030C9409140C947B1486
:100030000C948C030C948C030C948C030C948C0304
:100040000C948C030C948C030C948C030C948C03F4
:100050000C948C030C948C030C948C030C947A18E1
:100060000C948C030C94D7130C94B1130C948C0344
:100070000C948C030C948C030C948C030C948C03C4
:100080000C948C030C948C030C948C030C948C03B4
:100090000C948C030C948C030C948C030C948C03A4
:1000A0000C948C030C948C030C948C03500E530E04
:1000B000420E460E4A0E740E740E740E570E5B0EF0
:1000C0005F0E650E690E740E6F0E000000002400B6
:1000D00027002A002D00300072756E2D627269644F
:1000E00067650A000A000A0057616974696E672033
:1000F000666F72207468652059756E20746F206376
:100100006F6E6E65637420746F20746865206E6511
:1001100074776F726B00496E73657274206120741E
:10012000776F206C65747465727320636F756E747D
:100130007920636F6465202865672049542C205519
:10014000532C204445293A20004F6E65206C617382
:1001500074207175657374696F6E3A207768657283
:100160006520646F20796F75206C6976653F00505B
:10017000617373776F72643A20004E616D653A2047
:100180000057652061726520616C6D6F7374206427
:100190006F6E652120476976652061206E616D650F
:1001A00020616E6420612070617373776F726420C8
:1001B000746F20796F75722059756E00577269746B
:1001C0006520697420686572653A20004974206C66
:1001D0006F6F6B73206C696B6520796F75206E652E
:1001E000656420612070617373776F726420746F2F
:1001F00020636F6E6E65637420746F2000576869AA
:100200006368206F6E6520646F20796F7520776159
:100210006E7420746F20636F6E6E65637420746FEC
:100220003F0A00206E6574776F726B732061726F86
:10023000756E6420796F7520004974206C6F6F6B48
:1002400073206C696B6520796F7520686176652015
:1002500000456E6372797074696F6E20286567203F
:100260005750412C20575041322C20574550293AA5
:10027000200050617373776F726420666F72207410
:100280006865206E6574776F726B20796F75207763
:10029000616E7420746F20636F6E6E65637420747A
:1002A0006F3A200053534944206F662074686520DC
:1002B0006E6574776F726B20796F752077616E74DD
:1002C00020746F20636F6E6E65637420746F3A20C4
:1002D000004C6574277320636F6E6669677572657D
:1002E000206974206D616E75616C6C79004F6F7060
:1002F000732C206974207365656D73207468617454
:1003000020796F752068617665206E6F2057694689
:1003100069206E6574776F726B20617661696C61BC
:10032000626C65006977696E666F20776C616E300C
:10033000207363616E207C20677265702045535383
:100340004944207C20637574202D64225C22222085
:100350002D6632006977696E666F207C2067726552
:100360007020224D6F64653A204D6173746572226E
:100370000028696E20746865206D65616E77686914
:100380006C652C20696620796F7520617265207517
:1003900073696E672074686520494445277320732C
:1003A000657269616C206D6F6E69746F722C206D5F
:1003B000616B65207375726520746861742069745F
:1003C000277320636F6E6669677572656420746F4A
:1003D0002073656E64206120224E65776C696E65BE
:1003E00022290A0057616974696E672E2E2E005704
:1003F00068656E204C454420284C313329207769AC
:100400006C6C206C69676874207570207765276C48
:100410006C20626520726561647920746F20676F5B
:1004200021004C65742773207374617274206279A3
:1004300020636F6D6D756E69636174696E67207797
:1004400069746820746865204C696E7578207072D4
:100450006F636573736F720049276C6C2068656CFD
:100460007020796F7520636F6E6669677572696E4B
:100470006720796F75722059756E20696E20612032
:100480006D6174746572206F66206D696E75746538
:10049000730049276D20796F75722059756E206140
:1004A0007373697374616E7420736B657463680031
:1004B000486921204E69636520746F20736565204B
:1004C000796F75210000000000250028002B002E08
:1004D00000310004040404040304050202020204BF
:1004E00003020202020606060606060404020202CF
:1004F0000404040802011040804010204080408025
:1005000008020401804020100201108010204040A9
:10051000200000000200090F0000030401000C008D
:1005200000000000000000000000000000000000CB
:10053000080B00020202010009040000010202008F
:100540000005240010010524010101042402060510
:100550002406000107058103100040090401000280
:100560000A00000007050202400000070583024060
:1005700000000403090412010002EF0201404123BC
:10058000418000010102030141726475696E6F20B0
:100590004C4C430041726475696E6F2059756E0052
:1005A00050726573732027456E74657227206B65E2
:1005B0007920747769636520746F20737461727435
:1005C00020612073657269616C207465726D696E5B
:1005D000616C000A47726561742120596F75206350
:1005E000616E206E6F7720726561636820796F7528
:1005F000722059756E2066726F6D20612062726F75
:100600007773657220747970696E6720687474708E
:100610003A2F2F002F7573722F62696E2F707265DB
:100620007474792D776966692D696E666F2E6C75A5
:1006300061207C20677265702022495020616464CB
:100640007265737322207C20637574202D663220BE
:100650002D64223A22207C20637574202D6631207F
:100660002D64222F220052657374617274207468A5
:100670006520626F61726420696620796F752077EA
:10068000616E7420746F206578656375746520747D
:1006900068652077697A61726420616761696E00BC
:1006A000576520636F756C646E277420636F6E6E80
:1006B00065637420746F20746865206E6574776F4D
:1006C000726B2E0053193C1911241FBECFEFDAE0D4
:1006D000DEBFCDBF25E0A6E7B4E001C01D92AE3D70
:1006E000B207E1F714E0A0E0B1E0E8E2FEE302C007
:1006F00005900D92A637B107D9F713E0C3E6D3E012
:1007000004C02197FE010E94E21CC236D107C9F73E
:100710000E94D9190C94071F0C940000089580E0E2
:1007200090E00895CF93DF93EC010E94A80D8A8991
:10073000882359F081508A8B8B8991E0980F9B8B8D
:10074000C80FD11D8C8990E002C08FEF9FEFDF9121
:10075000CF910895CF93DF93EC010E94A80D8A8971
:1007600090E0DF91CF910895CF92DF92EF92FF92C8
:100770000F931F93C12CD12CE12CF12C00E010E041
:1007800020E030E00E947B0B1F910F91FF90EF90D3
:10079000DF90CF900895CF93DF9300D01F92CDB715
:1007A000DEB729E42983FC0126852A836B8343E095
:1007B00050E0BE016F5F7F4F848595850E94B40332
:1007C00081E090E00F900F900F90DF91CF9108950E
:1007D0008FEF9FEF909385048093840440E950ED60
:1007E00063E070E088EC94E00C94180B6F927F92B9
:1007F0008F929F92AF92BF92CF92DF92EF92FF9231
:100800000F931F93CF93DF93CDB7DEB7C05FD109AE
:100810000FB6F894DEBF0FBECDBF8FEF9FEF909362
:1008200085048093840410910B016AE070E080E0FD
:1008300090E00E9440181123B1F380EB94E00E94F5
:10084000640D82E994E00E94640D88E594E00E94C2
:10085000640D82E294E00E94640D8FEE93E00E94AA
:10086000640D84EE93E00E94640D81E793E00E94A2
:10087000640D68EE73E080E090E00E94401888E725
:1008800094E00E944312892BD9F088E794E00E94FB
:100890001513182F682F880F770B880B990B40E1E1
:1008A0000E94E70D63E871E088E794E00E948817F2
:1008B000183731F40E94E80381E08093CC05A2C68A
:1008C000EFEFF4E02491E0EEF4E08491882399F0D6
:1008D00090E0880F991FFC01E653FF4FA591B4915A
:1008E000FC01EB53FB4F859194918FB7F894EC91F9
:1008F000E22BEC938FBF80E00E942A0E40E950ED7E
:1009000063E070E080916E0590916F050E94180B76
:1009100080916C058111D9C081E080936C0585E6DA
:1009200095E00E94C41868EE73E080E090E00E94B9
:10093000401880916A0590916B05DC01ED91FC9166
:100940000084F185E02D09951816190644F3BB249F
:10095000B39422E3A22E85E0E2E1F1E0DE01AB5A9E
:10096000BF4F01900D928A95E1F7B0926D0545E079
:1009700050E0BE016B5A7F4F85E695E00E94B403BC
:1009800080916A0590916B05DC01ED91FC910190DD
:10099000F081E02D63E009956AEF70E080E090E07F
:1009A0000E94401866EE70E080916A0590916B0598
:1009B0000E9464176AEF70E080E090E00E944018A7
:1009C00064EE70E080916A0590916B050E94641757
:1009D00064EF71E080E090E00E94401868ED70E004
:1009E00080916A0590916B050E94641764EF71E035
:1009F00080E090E00E94401885E695E00E94C418CF
:100A000085E0E7E1F1E0DE01119601900D928A9513
:100A1000E1F7A0926D0594E0C92ED12CFE01E755B7
:100A2000FF4F7F0100E010E020E030E045E050E0C3
:100A3000BE016F5F7F4F85E695E00E947B0B8F3F85
:100A4000FFEF9F0739F468EE73E080E090E00E94CA
:100A5000401881CFC755DF4F2881C95AD040211196
:100A6000FFCF049749F5C655DF4F2881CA5AD040B9
:100A700030E02053310984E6829FA001839F500D0E
:100A80001124C555DF4F2881CB5AD04030E0205388
:100A900031096AE0629FC001639F900D1124840FA9
:100AA000951FC455DF4F2881CC5AD04030E02053E9
:100AB0003109820F931F02C084E690E0909367058E
:100AC0008093660582E380936D0581E00E942A0E83
:100AD00069961FAE1EAE699788EE93E0A0E0B0E085
:100AE0006D968CAF9DAFAEAFBFAF6D9785E791E0D0
:100AF00067969FAF8EAF679785E695E0A3969FAF09
:100B00008EAFA397A7961FAEA797A8961FAEA897DC
:100B1000A9961FAEA99764E573E0CE0101960E94E5
:100B20004A13BE016F5F7F4FCE018B5A9F4F0E94C9
:100B30006B10CE0101960E944513CE018B5A9F4F38
:100B40000E94A80DA8968FADA897882331F0CE01FA
:100B50008B5A9F4F0E949203F0CF64E273E0CE0164
:100B600001960E944A13BE016F5F7F4FCE018B5AE0
:100B70009F4F0E946B10CE0101960E94451360E2C8
:100B800070E08CE795E00E94330F912C86E0782E80
:100B9000CE018B5A9F4F0E94A80DA8968FADA897A3
:100BA000882321F029E0291508F087C463E074E068
:100BB000CE0181529F4F0E949C1363E074E0CE01EE
:100BC0008B519F4F0E949C1391107AC08DEE92E042
:100BD0000E94640D81ED92E00E94640D84EA92E02F
:100BE0000E94640D6CE775E0CE0101960E948213AD
:100BF00040E0BE016F5F7F4FCE0187559F4F0E943F
:100C0000E20FBE0167557F4F8CE795E00E94FA0E18
:100C1000CE0187559F4F0E944513CE0101960E9439
:100C2000451382E792E00E94640DBE016B517F4F35
:100C3000CE0101960E94821341E0BE016F5F7F4F9B
:100C4000CE0187559F4F0E94E20FBE0167557F4F2F
:100C5000CE018B519F4F0E94FA0ECE0187559F4FB8
:100C60000E944513CE0101960E94451361E572E092
:100C700088E794E00E946417BE0161527F4FCE0165
:100C800001960E94821340E0BE016F5F7F4FCE014C
:100C900087559F4F0E94E20FBE0167557F4FCE01DF
:100CA00081529F4F0E94FA0ECE0187559F4F0E949E
:100CB0004513CE0101960E944513E12CF12C74C01E
:100CC00069E372E088E794E00E946417892D90E060
:100CD000A0E0B0E04AE0BC01CD010E94E70D83E254
:100CE00092E00E94640D8DEF91E00E94640D0CE78C
:100CF00015E0C12CD12C76014AE0C701B6010E9453
:100D0000E70D66E871E0CE0101960E949C13B801E0
:100D1000CE0101960E94BC0F0E94770DCE01019674
:100D20000E94451381E08C0D891568F4BFEFCB1A42
:100D3000DB0AEB0AFB0A0A5F1F4FEAE0CE16D1047A
:100D4000E104F104C9F663E074E0CE0101960E946B
:100D50009C13BE016F5F7F4FCE0187559F4F0E944E
:100D6000821340E0BE0167557F4FCE0181559F4FF2
:100D70000E94E20FBE0161557F4FCE0101960E9495
:100D8000FA0ECE0181559F4F0E944513CE01875523
:100D90009F4F0E94451389819A810E94471C7C01C4
:100DA000CE0101960E94451386E08E9D80018F9DA5
:100DB000100D112404581A4F69E871E0CE01019614
:100DC0000E949C13B801CE0101960E94BC0F64EAF8
:100DD00071E00E94A30FBC01CE018B5A9F4F0E946D
:100DE0006B10CE0101960E944513CE018B5A9F4F86
:100DF0000E94A80DA8968FADA897882361F0CE0118
:100E00008B5A9F4F0E949203682FCE0181529F4FB1
:100E10000E94CF0FEACF6CEC71E0CE0101960E94E8
:100E20009C13BE016F5F7F4FCE0181529F4F0E9486
:100E30008E0D7C01CE0101960E944513F7FC0AC07D
:100E40006CEC71E0CE0181529F4F0E945410FF2440
:100E5000F39401C0F12C61ED71E0CE0101960E9486
:100E60009C13BE016F5F7F4FCE0181529F4F0E9446
:100E70008E0D6C01CE0101960E944513D7FC07C070
:100E800066ED71E0CE0181529F4F0E9454106BEDD0
:100E900071E0CE0101960E949C13BE016F5F7F4FEF
:100EA000CE0181529F4F0E948E0D6C01CE010196A2
:100EB0000E944513D7FC07C06FED71E0CE0181524F
:100EC0009F4F0E94541063EE71E0CE0101960E9484
:100ED0009C13BE016F5F7F4FCE0181529F4F0E94D6
:100EE0008E0D6C01CE0101960E944513D7FC07C000
:100EF00067EE71E0CE0181529F4F0E945410F110B5
:100F000009C0C751DF4F88819981C95ED040892BC4
:100F100009F447C381E891E00E94640D6AE771E03B
:100F200088E794E00E94641766E775E0CE010196B9
:100F30000E94821340E0BE016F5F7F4FCE01875554
:100F40009F4F0E94E20FBE0167557F4F86E795E0F5
:100F50000E94FA0ECE0187559F4F0E944513CE0185
:100F600001960E9445136FE671E088E794E00E94C5
:100F7000641760E775E0CE0101960E94821341E09C
:100F8000BE016F5F7F4FCE0187559F4F0E94E20FDA
:100F9000BE0167557F4F80E795E00E94FA0ECE01B3
:100FA00087559F4F0E944513CE0101960E9445131D
:100FB00063E074E0CE0185519F4F0E949C1389E449
:100FC00091E00E94640D66E171E088E794E00E9480
:100FD0006417BE0165517F4FCE0101960E948213B6
:100FE00040E0BE016F5F7F4FCE0187559F4F0E944B
:100FF000E20FBE0167557F4FCE0185519F4F0E9482
:10100000FA0ECE0187559F4F0E944513CE010196DF
:101010000E94451386E795E00E949A0E80E795E0CE
:101020000E949A0EC8010E949A0ECE018B519F4FCA
:101030000E949A0ECE0185519F4F0E949A0EBE01CA
:1010400061527F4FCE0187529F4F0E948213BE0193
:1010500065517F4FCE018D529F4F0E9482136BEEE0
:1010600071E0CE0189539F4F0E949C1366E775E0A3
:10107000CE0189539F4F0E94BC0F6FEE71E00E941A
:10108000A30FBC01CE0183539F4F0E948213BE0168
:101090006B517F4FCE018F539F4F0E948213B80137
:1010A000CE0185549F4F0E94821360E775E0CE0108
:1010B0008B549F4F0E94821366E775E0CE018155E5
:1010C0009F4F0E9482131C821B8288EE93E0A0E057
:1010D000B0E08D839E83AF83B88705E711E01A8364
:1010E000098385E695E09E878D871A8A1B8A1C8A6C
:1010F00062EF71E0CE0187559F4F0E949C13BE01A5
:1011000067557F4FCE0101960E946B10CE01875527
:101110009F4F0E94451362E072E0CE0187559F4FBA
:101120000E949C13BE0161557F4FCE0187559F4F92
:101130000E94BC0FBC01CE0101960E946B10CE0133
:1011400087559F4F0E9445136CE072E0CE01875592
:101150009F4F0E949C13BE0161557F4FCE01875562
:101160009F4F0E94BC0F64EE72E00E94A30FBC016F
:10117000CE0101960E946B10CE0187559F4F0E94B1
:10118000451361E372E0CE0187559F4F0E949C1387
:10119000BE0163537F4FCE0187559F4F0E94BC0F06
:1011A00064EE72E00E94A30FBC01CE0101960E9482
:1011B0006B10CE0187559F4F0E94451366E672E083
:1011C000CE0187559F4F0E949C13BE0167527F4FEF
:1011D000CE0187559F4F0E94BC0F64EE72E00E94C3
:1011E000A30FBC01CE0101960E946B10CE01875562
:1011F0009F4F0E94451363E972E0CE0187559F4FD0
:101200000E949C13BE0167557F4FCE0101960E943C
:101210006B10CE0187559F4F0E9445136FEB72E014
:10122000CE0187559F4F0E949C13BE0165547F4F8E
:10123000CE0187559F4F0E94BC0F64EE72E00E9462
:10124000A30FBC01CE0101960E946B10CE01875501
:101250009F4F0E94451366EE72E0CE0187559F4F67
:101260000E949C13BE016F537F4FCE0187559F4F45
:101270000E94BC0F64EE72E00E94A30FBC01CE017D
:1012800001960E946B10CE0187559F4F0E94451317
:101290006CE073E0CE0187559F4F0E949C13BE0106
:1012A00067557F4FCE0101960E946B10CE01875586
:1012B0009F4F0E94451363E373E0CE0187559F4F14
:1012C0000E949C13BE016D527F4FCE0187559F4FE8
:1012D0000E94BC0F64EE72E00E94A30FBC01CE011D
:1012E00001960E946B10CE0187559F4F0E944513B7
:1012F00065E573E0CE0187559F4F0E949C13BE01A8
:1013000067557F4FCE0101960E946B10CE01875525
:101310009F4F0E94451363E773E0CE0187559F4FAF
:101320000E949C13BE0167557F4FCE0101960E941B
:101330006B10CE0187559F4F0E94451362E973E001
:10134000CE0187559F4F0E949C13BE0167557F4F6A
:10135000CE0101960E946B10CE0187559F4F0E94CF
:10136000451363EB73E0CE0187559F4F0E949C139A
:10137000BE016B547F4FCE0187559F4F0E94BC0F1B
:1013800062E074E00E94A30FBE016B547F4F0E9485
:10139000BC0F6DEB73E00E94A30FBC01CE01019660
:1013A0000E946B10CE0187559F4F0E9445136DEC34
:1013B00073E0CE0187559F4F0E949C13BE01675575
:1013C0007F4FCE0101960E946B10CE0187559F4F33
:1013D0000E94451368ED73E0CE0187559F4F0E9430
:1013E0009C13BE0167557F4FCE0101960E946B1082
:1013F000CE0187559F4F0E94451363EE73E0CE01E7
:1014000087559F4F0E949C13BE0167557F4FCE01A9
:1014100001960E946B10CE0187559F4F0E94451385
:101420001A830983CE0101960E94140DCE018155C5
:101430009F4F0E944513CE018B549F4F0E9445132E
:10144000CE0185549F4F0E944513CE018F539F4F6D
:101450000E944513CE0183539F4F0E944513CE0136
:1014600089539F4F0E944513CE018D529F4F0E947A
:101470004513CE0187529F4F0E94451368EE70E0DE
:1014800088E794E00E946417CE0185519F4F0E9427
:101490004513CE018B519F4F0E944513CE018152BF
:1014A0009F4F0E94451367961FAF0EAF6797CE01FF
:1014B0008B5A9F4F0E94140DA5C0CE018B5A9F4F8F
:1014C0000E949203682FC92CD12C8A3051F07C9C49
:1014D000C0017D9C900D112484589A4F0E94CF0F1B
:1014E00057CB0CE715E0612C812C7C9CC0017D9CC6
:1014F000900D1124DC01A458BA4F7D015D01B4E0C8
:10150000AB0EB11C961499F1F50120813181D801FF
:1015100014968D919C9115972817390721F5F7019D
:10152000808191816D917C91009719F06115710511
:10153000A1F46115710549F0232B99F0DB018C9121
:1015400090E09195819591090AC0009751F0232B65
:1015500041F0FC01808190E002C00E94DD1E892BD9
:1015600011F48824839463940A5F1F4FCBCF7C9C33
:10157000C0017D9C900D112484589A4FDC01ED919F
:10158000FC912081203241F0811006C0939460E2EA
:1015900070E00E94330FFCCA63E074E00E945410B4
:1015A000F7CA6CEC71E088E794E00E946417C80108
:1015B0000E94770D6CEB71E088E794E00E9464175D
:1015C000BE016B517F4FCE0101960E94821341E014
:1015D000BE016F5F7F4FCE0187559F4F0E94E20F84
:1015E000BE0167557F4FCE018B519F4F0E94FA0E6F
:1015F000CE0187559F4F0E944513CE0101960E9450
:10160000451388CCC051DF4F0FB6F894DEBF0FBE34
:10161000CDBFDF91CF911F910F91FF90EF90DF90A1
:10162000CF90BF90AF909F908F907F906F900895D4
:10163000CF92DF92EF92FF92CF93DF93EC016A019A
:101640007B01E889F98982E080834115514E61056B
:101650007105B1F060E079E08DE390E0A7019601BB
:101660000E94C01CDA01C9010197A109B109B69510
:10167000A795979587959C01211580E13807A8F0DB
:10168000E889F989108260E874E88EE190E0A701AA
:1016900096010E94C01CDA01C9010197A109B10994
:1016A000B695A795979587959C01EC85FD85308328
:1016B000EE85FF852083188EEC89FD8986E0808386
:1016C000EA89FB89808180618083EA89FB89808146
:1016D00088608083EA89FB89808180688083EA89C9
:1016E000FB8980818F7D8083DF91CF91FF90EF9088
:1016F000DF90CF9008952F923F924F925F926F921A
:101700007F928F929F92AF92BF92CF92DF92EF9291
:10171000FF920F931F93CF93DF93CDB7DEB72E9732
:101720000FB6F894DEBF0FBECDBF9E878D873B01FD
:1017300029019A01200F311F3A8329838A80912C35
:1017400022242A94322CCB01840F951F98878F83F3
:10175000D201A00FB11FBA87A987F701EC0DFD1DBB
:10176000FC87EB87AD85BE8518968C9118979816E7
:1017700008F03FC114963C922E92139715968D91C6
:101780009C911697DC01ED91FC910190F081E02D88
:101790006FEF09956FEF8D859E850E942519ED8568
:1017A000FE8585819681DC01ED91FC910190F081AF
:1017B000E02DAD85BE856C910995ED85FE85608136
:1017C000CF010E942519AD85BE8515968D919C91FE
:1017D0001697DC01ED91FC910190F081E02D682DD0
:1017E0000995682D8D859E850E942519ED85FE85BC
:1017F00085819681DC01ED91FC910190F081E02DD5
:101800006981099569818D859E850E9425195301FD
:10181000EF81F885AE16BF06C1F0AD85BE85159681
:101820008D919C9116978501DC01ED91FC910190C1
:10183000F081E02DD5016D915D010995F801608180
:101840008D859E850E942519E3CF8201AD85BE85D9
:1018500015968D919C911697E985FA850E171F07AD
:1018600091F05801DC01ED91FC910190F081E02DA7
:10187000D8016D918D010995F50160818D859E8559
:101880000E942519E3CFAD85BE8514966C91DC01CD
:10189000ED91FC910190F081E02D0995ED85FE859B
:1018A00085819681DC01ED91FC910190F081E02D24
:1018B000AD85BE8513966C91099568EC70E08D85B9
:1018C0009E850E94E0188F3F910509F086C0ED8546
:1018D000FE85348223826FEFCF010E94251965E0D7
:1018E00070E08D859E850E94E018AD85BE856C9167
:1018F000262F30E08217930709F06FC0CD010E94B8
:1019000025196AE070E08D859E850E94E0185C01D3
:1019100097FD63C0682F8D859E850E9425196AE01A
:1019200070E08D859E850E94E0188C0197FD55C062
:10193000682F8D859E850E942519AC821B82EB81C4
:10194000FC810E0F1F1F57019701200F311F3E838F
:101950002D838D819E81A816B906C1F0AB85BC850B
:10196000AA16BB0699F065E070E08D859E850E9401
:10197000E01897FD07C0F5018083682F8D859E854F
:101980000E942519FFEFAF1ABF0AE3CF65E070E0B0
:101990008D859E850E94E0185C0197FD1EC065E064
:1019A00070E08D859E850E94E01897FD16C0BA2CC8
:1019B000AA248A0D9B1DAD85BE8513962D913C9161
:1019C00014978217930749F48C918F5F8C93C80109
:1019D000C016D10680F4C6010EC0939464E670E090
:1019E00080E090E00E9440188D859E850E94C4187A
:1019F000B9CE8FEF9FEF2E960FB6F894DEBF0FBED5
:101A0000CDBFDF91CF911F910F91FF90EF90DF90AD
:101A1000CF90BF90AF909F908F907F906F905F908E
:101A20004F903F902F9008950F931F93CF93DF9384
:101A300000D0CDB7DEB78C01FC018189882369F025
:101A400087E7898386858A8342E050E0BE016F5F25
:101A50007F4F848595850E94B403F801118A0F9009
:101A60000F90DF91CF911F910F91089520917704EE
:101A7000211103C08FEF9FEF08955FB7F89422E024
:101A80002093E9002091F20030E01216130614F4BE
:101A900021E030E0422FFC0184E6415038F02898E4
:101AA000809376049091F1009193F7CF2115310541
:101AB00021F08091F200882319F05FBFC9010895D9
:101AC0008BE68093E800F9CFCF93DF93BC0188E7E2
:101AD00094E00E946417EC0163E871E088E794E009
:101AE0000E9488178C0F9D1FDF91CF910895CF938F
:101AF000DF93FC01448155816081718188E794E026
:101B00000E946712EC0163E871E088E794E00E94AC
:101B100088178C0F9D1FDF91CF910895CF93DF938E
:101B2000FC0124813581232B71F0FB01DC01CD9177
:101B3000DC9160817181CE010E94ED1E009719F049
:101B40008C1B9D0B02C08FEF9FEFDF91CF9108950B
:101B5000AF92BF92CF92DF92EF92FF920F931F93BB
:101B6000CF93DF9300D01F92CDB7DEB7FC0122895F
:101B700021111FC05C01138A8FE4898380E48B8369
:101B800086858A837F01F4E1EF0EF11C80E4C82E84
:101B9000D12C00E010E020E030E043E050E0BE0156
:101BA0006F5F7F4FF501848595850E947B0BF50162
:101BB000828B0F900F900F90DF91CF911F910F911B
:101BC000FF90EF90DF90CF90BF90AF9008958F92ED
:101BD0009F92AF92BF920F931F93CF93DF93CDB796
:101BE000DEB7A1970FB6F894DEBF0FBECDBF19A226
:101BF000423008F44AE08E010F5D1F4F842E912C75
:101C0000A12CB12CA50194010E94C01CE62FB901A2
:101C1000CA0101501109EA3014F4E05D01C0E95C29
:101C2000D801EC93232B242B252B61F7B80188E7EF
:101C300094E00E948817A1960FB6F894DEBF0FBEFD
:101C4000CDBFDF91CF911F910F91BF90AF909F902B
:101C50008F900895EEE1F5E04491EFEFF4E02491E8
:101C6000E0EEF4E09491992309F452C04423E1F1A9
:101C700050E0FA013197EF30F105B0F5EA5AFF4F25
:101C80000C94E21C309180003F7707C030918000B7
:101C90003F7D03C030918000377F3093800024C0A7
:101CA00034B53F7702C034B53F7D34BD1DC030919F
:101CB00090003F7707C0309190003F7D03C0309186
:101CC0009000377F309390000FC03091C0003F7775
:101CD00003C03091C0003F7D3093C00005C03091FB
:101CE000C200377F3093C200E92FF0E0EE0FFF1FF4
:101CF000EB53FB4FA591B4919FB7F894811104C0A9
:101D00008C912095282302C0EC912E2B2C939FBF01
:101D100008952FB7F89483E08093E9009091E8004C
:101D2000892F807295FF04C09091F20080E4891B96
:101D30002FBF0895AF92BF92CF92DF92EF92FF92A2
:101D40000F931F93CF93DF93DC01CD90DC9011971D
:101D5000C114D10409F443C01496CD91DC911597B8
:101D60002097E9F18C0176015701BFEFAB1ABB0A4E
:101D7000F7018081082E000C990B0E947D1C892B95
:101D800011F07501F1CF2197CC0DDD1D8881082E52
:101D9000000C990B0E947D1C892B29F0CE15DF05C4
:101DA00010F02197F3CFAE014F5F5F4F4E195F09DF
:101DB000D80115965C934E931497CE14DF0420F44B
:101DC000B701C6010E94D41ED801ED91FC91119774
:101DD00014968D919C911597E80FF91F1082DF9151
:101DE000CF911F910F91FF90EF90DF90CF90BF9018
:101DF000AF9008950F931F93CF93DF938C01EB0166
:101E0000FC01808191810097B1F068817981611531
:101E1000710579F0428153812C813D81421753072E
:101E200040F00E94E61E8C819D81F8019583848399
:101E300013C00E94801D88819981F801918380835D
:101E40008A819B81938382838C819D819583848306
:101E5000198218821B821A821D821C82DF91CF9107
:101E60001F910F9108950F931F93CF93DF93EC0170
:101E700088819981009729F02A813B8126173707AD
:101E800088F48B016F5F7F4F0E94091E009761F0FD
:101E9000998388831B830A832C813D81232B11F432
:101EA000FC01108281E001C080E0DF91CF911F91A1
:101EB0000F910895EF92FF920F931F93CF93DF93AB
:101EC0006115710511F480E01CC041155105C1F088
:101ED0007B01EC018C819D818A01080F191FB801DB
:101EE000CE010E94330F882371F3288139818C81C0
:101EF0009D81B701820F931F0E94E61E1D830C83F4
:101F000081E0DF91CF911F910F91FF90EF900895A5
:101F10000F931F93CF93DF93EC018B0141E050E0CF
:101F200069EE73E08F8598890E945A0FF801448109
:101F30005581608171818F859889DF91CF911F9143
:101F40000F910C945A0FCF93DF93EC01611571053B
:101F500061F0FB0101900020E9F73197AF01461BCA
:101F6000570B0E945A0F811103C0CE010E943313F8
:101F7000CE01DF91CF910895CF93DF93EC01FB0168
:101F800044815581608171810E945A0F811103C083
:101F9000CE010E943313CE01DF91CF910895CF93EC
:101FA000DF9300D0CDB7DEB769831A8241E050E0FD
:101FB000BE016F5F7F4F0E945A0F0F900F90DF910D
:101FC000CF910895EF92FF920F931F93CF93DF93DA
:101FD000EC017B01042F88E794E00E94431218165D
:101FE0001906CCF788E794E00E941513182F88E7AC
:101FF00094E00E94F1121A3039F48A30E1F488E753
:1020000094E00E94151317C01D30B9F31F3F51F320
:10201000612FC7010E94CF0F002339F06BEE73E0F0
:1020200088E794E00E948817DDCF612F88E794E06D
:102030000E942212D7CF63E074E088E794E00E9408
:102040009D17198218821B821A821D821C82B70179
:10205000CE010E94FA0ECE01DF91CF911F910F9118
:10206000FF90EF900895EF92FF920F931F93CF93FD
:10207000DF93EC017B018A01BA010E94330F8111C9
:1020800004C0CE010E94331307C01D830C83B70127
:10209000888199810E94E61ECE01DF91CF911F9128
:1020A0000F91FF90EF900895CF93DF93EC016115AE
:1020B000710559F0FB0101900020E9F73197AF015C
:1020C000461B570B0E94331002C00E943313CE01EF
:1020D000DF91CF9108958F929F92AF92BF92CF924E
:1020E000DF92EF92FF920F931F93CF93DF93CDB7C1
:1020F000DEB728970FB6F894DEBF0FBECDBF5C01E8
:102100004B016DEE73E0CE0101960E949C13C50158
:102110000E94140D86E090E00E94E81C8C01BE0134
:102120006F5F7F4F0E948213D50150961C930E93D0
:102130001F97CE0101960E94451366EF73E0CE0112
:1021400001960E949C13BE016F5F7F4FC5010E94E4
:10215000880FCE0101960E944513B401C5010E946B
:10216000880F82E58F83D5011F96ED91FC915097E2
:10217000048115812081318152E0C52ED12CFE01D0
:1021800031967F0141E050E0BE01695F7F4F1C96B0
:102190008D919C911D970E947B0B8A81D5011E9683
:1021A0008C931E971F960D911C9150970115110548
:1021B00031F0C8010E944513C8010E94801DF5013D
:1021C000108A17868981811102C081E0818B42E7E4
:1021D000942E9982D5011E968C911E978A83CC24C9
:1021E000C394D12CFE0137967F0100E010E020E07F
:1021F00030E042E050E0BE016F5F7F4F1C968D9152
:102200009C911D970E947B0B8F81813039F464E68D
:1022100070E080E090E00E944018DBCF87E58F837C
:10222000D5011E968C911E97888782E0C82ED12CEE
:10223000FE0131967F0100E010E020E030E042E056
:1022400050E0BE01695F7F4F1C968D919C911D9758
:102250000E947B0B898190E0982F88272A81820F2A
:10226000911D28960FB6F894DEBF0FBECDBFDF914B
:10227000CF911F910F91FF90EF90DF90CF90BF9083
:10228000AF909F908F90089508958091C40581111B
:102290000DC082E08093C00584E08093C105109258
:1022A000C3051092C20581E08093C40580EC95E0DF
:1022B00008954091BC055091BD052091BA0530911B
:1022C000BB0542175307B4F49091E8009570E1F311
:1022D0009091E80092FD19C08093F1008091BC05B7
:1022E0009091BD0501968F739927892B19F48EEF74
:1022F0008093E8008091BC059091BD050196909374
:10230000BD058093BC0581E0089580E00895DF92CB
:10231000EF92FF920F931F93CF93DF93D82EF92E56
:10232000E42E062F10E0C8010196880F0E94591173
:1023300083E00E945911CD2DDF2D0C0F1D1FC017FA
:10234000D10789F0E7FE03C0FE01849101C08881B6
:102350000E945911F82E80E00E9459118F21219678
:102360008111EDCF01C081E0DF91CF911F910F91DD
:10237000FF90EF90DF900895DF92EF92FF920F931E
:102380001F93CF93DF93D82E8A017B01E40EF51EB5
:10239000EB01CE15DF0571F0D7FE03C0FE0184917D
:1023A00001C088810E94591121968111F2CF8FEFCF
:1023B0009FEF01C0C801DF91CF911F910F91FF9056
:1023C000EF90DF9008950F931F93CF93DF931F92A9
:1023D000CDB7DEB782E0898342E450E060E375E088
:1023E00080E80E94BC110E944511DC0112960D91FB
:1023F0001C9113970115110589F0D801ED91FC91FD
:102400000280F381E02DBE016F5F7F4FC801099507
:1024100097FD04C0F80100851185ECCF89810F90EC
:10242000DF91CF911F910F910895615030F020916D
:10243000F100FC0120830196F8CF289884E6809370
:1024400076040895CF93DF931F92CDB7DEB76983EB
:10245000DC01ED91FC910280F381E02D41E050E040
:10246000BE016F5F7F4F09950F90DF91CF91089567
:1024700083E08093E9008091F200882319F08AE3D9
:102480008093E8000895FC018485958597FD0BC035
:102490009FB7F89482E08093E9008091F2009FBF9B
:1024A00090E0019608959FB7F89482E08093E90048
:1024B0008091F2009FBF90E0089588EC94E00E9424
:1024C000141721E0892B09F420E0822F08958F92C0
:1024D0009F92AF92BF92CF92DF92EF92FF920F93B3
:1024E0001F93CF93DF936C017B018A0180910B01D5
:1024F000882309F45CC080917704882309F457C0CD
:102500008091B90580FF05C08091E00082608093D2
:10251000E000E801B12C8AEFA82E93E0892E2AE38F
:10252000922E209711F4BB20D9F10E94890E8111BF
:102530000AC0AA94AA20D9F161E070E080E090E09E
:102540000E944018EECF282F30E0C217D3070CF4BA
:102550008C2F9FB7F8948092E9002091E80025FF26
:102560001DC0282F30E0C21BD30BF701815020F093
:1025700041914093F100FACFE20EF31EBB2019F017
:102580009092E8000AC08091E80085FD07C0909213
:10259000E800BB24B394209709F0B12C9FBFC1CFB2
:1025A0005D9884E68093BF051016110644F081E023
:1025B00090E0F6019383828380E090E001C0C8013F
:1025C000DF91CF911F910F91FF90EF90DF90CF900F
:1025D000BF90AF909F908F9008950E94890E90E0D9
:1025E00008950F931F93CF93DF931F92CDB7DEB75C
:1025F0008C01FC018485958597FF0EC0CE01019664
:102600000E94360D019719F4898190E002C08FEF86
:102610009FEFF80195878487F801848595850F9051
:10262000DF91CF911F910F910895CF93DF931F9268
:10263000CDB7DEB7FC018485958597FD05C02FEFEA
:102640003FEF358724870BC0CE0101960E94360DDF
:10265000019719F4898190E002C08FEF9FEF0F90EE
:10266000DF91CF910895CF93DF93EC018881998119
:10267000009711F00E94801D198218821D821C8211
:102680001B821A82DF91CF910895FC018081918194
:102690000C94801DEF92FF920F931F93CF93DF93C3
:1026A000EC01198218821B821A821D821C8261151C
:1026B000710509F18B01CB010E946C1C7C01BC01EE
:1026C000CE010E94330F811109C0CE01DF91CF915D
:1026D0001F910F91FF90EF900C943313FD82EC82C9
:1026E000B80188819981DF91CF911F910F91FF905F
:1026F000EF900C94651CDF91CF911F910F91FF908B
:10270000EF900895FB01DC0111961C921E92139626
:102710001C921E92129715961C921E921497861761
:10272000970749F0608171816115710521F044813D
:1027300055810C9433100895FC011182108213828C
:102740001282158214826115710551F0FB0101900E
:102750000020E9F73197AF01461B570B0C9433105B
:1027600008951F920F920FB60F9211242F933F934B
:102770004F935F936F937F938F939F93AF93BF9389
:10278000EF93FF9388EC94E00E94B117FF91EF91D3
:10279000BF91AF919F918F917F916F915F914F9179
:1027A0003F912F910F900FBE0F901F9018951F9281
:1027B0000F920FB60F9211242F938F939F93EF9345
:1027C000FF93E091D804F091D9048081E091DE0478
:1027D000F091DF0482FD12C090818091E1048F5F4F
:1027E0008F732091E204821751F0E091E104F0E050
:1027F000E853FB4F958F8093E10401C08081FF91E6
:10280000EF919F918F912F910F900FBE0F901F907E
:1028100018951F920F920FB60F9211248F939F93CA
:102820008091E1009091E100937F9093E10083FF1C
:102830000FC01092E90091E09093EB001092EC0031
:1028400092E39093ED001092770498E09093F0005B
:1028500082FF20C093E09093E9009091F2009923C9
:1028600019F09AE39093E8009091BF05992339F00D
:102870009091BF0591509093BF05992389F1909154
:102880007604992339F090917604915090937604D0
:10289000992341F184FF10C08091E2008E7E816017
:1028A0008093E2008091E1008F7E8093E10080912F
:1028B000B9058E7E806111C080FF16C08091E20054
:1028C0008E7E80618093E2008091E1008E7E809315
:1028D000E1008091B9058E7E81608093B90504C0C6
:1028E0005D9ACDCF289AD6CF9F918F910F900FBE32
:1028F0000F901F9018951F920F920FB60F921124F0
:10290000CF92DF92EF92FF920F931F932F933F93FB
:102910004F935F936F937F938F939F93AF93BF93E7
:10292000EF93FF93CF93DF93CDB7DEB76C97DEBF06
:10293000CDBF1092E9008091E80083FFFBC168E001
:10294000CE0145960E94151282EF8093E8008D8992
:1029500087FF05C09091E80090FFFCCF03C09EEF79
:102960009093E800982F907609F0C6C09E894F8911
:10297000588D2F89F88C91110CC0803829F48091E2
:10298000B8058093F10002C01092F1001092F1009E
:1029900045C1913051F4811141C14130510509F0D7
:1029A0003DC18091B8058D7F0BC0933061F48111DA
:1029B00035C14130510509F031C18091B8058260BF
:1029C0008093B8052BC1953049F48091E80080FFD1
:1029D000FCCF822F80688093E30020C1963009F0FD
:1029E0005EC00B8D1C8D22E01092E9001092BD0597
:1029F0001092BC05F21232C01092BB051092BA05BB
:102A00000E94E31199E0BE016F5F7F4FDB01E92F68
:102A10001D92EA95E9F79983FA8291E09E8390EA04
:102A200098879AEF99872091BC053091BD05275F63
:102A30003F4F3C832B838D831092E9001092BD059C
:102A40001092BC051093BB050093BA0549E050E015
:102A500080E00E94BC110E94E311E0C01093BB050E
:102A60000093BA050E944511DC0112960D911C914C
:102A700013970115110509F4BBC0D801ED91FC9124
:102A80000480F581E02DBE016B5E7F4FC801099582
:102A9000009709F0C7C0F80100851185EACF97308B
:102AA00009F445C1983021F481E08093F100B6C06B
:102AB000993009F0B3C0837009F039C1EFE5F1E056
:102AC00081E031E096E32081211109C08EE78093F7
:102AD000EA001092EA008F89809377049FC0809368
:102AE000E9003093EB0021912093EC009093ED00EE
:102AF0008F5F873041F7EACF8B8D9C8D1092E90074
:102B00001092BD051092BC059093BB058093BA0549
:102B1000898D811153C08E899D89913A49F4813202
:102B200009F005C147E050E064E071E080E0BBC01F
:102B3000913209F0FCC0833269F48F89988DA0E04E
:102B4000B0E08093000190930101A0930201B09343
:102B5000030164C0803269F48091E80082FFFCCFF9
:102B600067E084E091E00E9415128BEF8093E8000B
:102B700055C0823209F052C08F8980930B01EEEF6D
:102B8000FFE7859194918B3F9C4D19F0E0E0F8E0D0
:102B900002C0EEEFFAE08091040190910501A0914E
:102BA0000601B0910701803B9440A105B10509F0F1
:102BB0009EC080910B0180FF79C099C00E94451191
:102BC000FC01028113810115110509F4B0C0D8017F
:102BD000ED91FC910190F081E02DBE016B5E7F4F85
:102BE000C801099581111AC0F80100851185EBCF44
:102BF000F1E0FF1609F44EC0F3E0FF1298C08F8990
:102C0000882309F44AC0823089F440E86BE084E903
:102C100095E00E948711882309F489C08EEF809384
:102C2000E80088C018161906CCF381C0813029F459
:102C300040E86BE088E895E0ECCF833009F077C09E
:102C40000E944511DC011296ED90FC9013978E01C5
:102C50000F5F1F4F6801E114F10479F0D701ED9186
:102C6000FC910680F781E02DB801C7010995080F96
:102C7000111DF701E084F184EECFD8011C92F6011A
:102C800001900020E9F73197BF016C197D0940E000
:102C9000C601BFCF66E775E002C062E775E0FB01E1
:102CA000449150E080E80E94BC11B8CFEE3F2AE08A
:102CB000F20751F0808191818737A7E79A0721F0C9
:102CC0009093FF0A8093FE0A87E797E791838083BA
:102CD000809160008093BE059BE088E10FB6F89478
:102CE000A895809360000FBE9093600097CF80817D
:102CF00091818737974709F091CFA895809160001F
:102D00008861809360008091BE0580936000EE3FF3
:102D1000BAE0FB0739F08091FE0A9091FF0A918397
:102D200080837CCF1092FF0A1092FE0A77CF81E257
:102D30008093EB006C960FB6F894DEBF0FBECDBF4C
:102D4000DF91CF91FF91EF91BF91AF919F918F91C3
:102D50007F916F915F914F913F912F911F910F91B3
:102D6000FF90EF90DF90CF900F900FBE0F901F90CD
:102D70001895CF92DF92EF92FF920F931F93CF930C
:102D8000DF936C017A018B01C0E0D0E0CE15DF0546
:102D900081F0D8016D918D01D601ED91FC910190EA
:102DA000F081E02DC6010995892B11F02196EECF17
:102DB0007E01C701DF91CF911F910F91FF90EF909E
:102DC000DF90CF900895FC01538D448D252F30E086
:102DD000842F90E0821B930B541710F0CF96089528
:102DE00001970895FC01918D828D981761F0828D75
:102DF000DF01A80FB11D5D968C91928D9F5F9F732F
:102E0000928F90E008958FEF9FEF0895FC01918DD0
:102E1000828D981731F0828DE80FF11D858D90E03D
:102E200008958FEF9FEF0895FC01918D228D892FDA
:102E300090E0805C9F4F821B91098F7399270895C2
:102E400080E090E0892B29F00E945D1281110C94A2
:102E5000000008953FB7F8948091CE059091CF057A
:102E6000A091D005B091D10526B5A89B05C02F3FF4
:102E700019F00196A11DB11D3FBFBA2FA92F982FA0
:102E80008827820F911DA11DB11DBC01CD0142E01B
:102E9000660F771F881F991F4A95D1F70895CF9322
:102EA000DF93EC010E94A80D8A89882331F08B8979
:102EB000C80FD11D8C8990E002C08FEF9FEFDF918A
:102EC000CF9108950E94CF1EEF92FF920F931F9310
:102ED000CF93DF938C017B01C0E0D0E0F701EC0FD2
:102EE000FD1F6491662361F0D801ED91FC91019082
:102EF000F081E02DC8010995892B11F02196EECFC4
:102F0000CE01DF91CF911F910F91FF90EF90089527
:102F10006115710579F0FB0101900020E9F7319707
:102F2000AF01461B570BDC01ED91FC910280F38150
:102F3000E02D099480E090E008950F931F93CF93C4
:102F4000DF93EC010E9488178C0163E871E0CE01E9
:102F50000E948817800F911FDF91CF911F910F91D1
:102F60000895FC01848DDF01A80FB11DA35ABF4F46
:102F70002C91848D90E001968F739927848FA68978
:102F8000B7892C93A089B1898C9182748C93938D8D
:102F9000848D981306C00288F389E02D80818F7D8F
:102FA00080830895EF92FF920F931F93CF93DF9347
:102FB000EC0181E0888F9B8D8C8D981305C0E8898A
:102FC000F989808185FD26C0F62E0B8D10E00F5FFC
:102FD0001F4F0F731127E02E8C8DE8120CC00FB617
:102FE00007FCFACFE889F989808185FFF5CFCE010A
:102FF0000E94B117F1CF8B8DFE01E80FF11DE35A4E
:10300000FF4FF0829FB7F8940B8FEA89FB8980818C
:10301000806209C09FB7F894EE89FF896083E889D0
:10302000F9898081827480839FBF81E090E0DF9185
:10303000CF911F910F91FF90EF900895CF93DF9361
:10304000EC01888D8823C9F0EA89FB89808185FDA0
:1030500005C0A889B9898C9186FD0FC00FB607FC01
:10306000F5CF808185FFF2CFA889B9898C9185FF42
:10307000EDCFCE010E94B117E7CFDF91CF91089538
:103080008F929F92AF92BF92CF92DF92EF92FF9278
:103090006B017C010E942A174B015C01C114D10411
:1030A000E104F104F1F00E942A17DC01CB01881938
:1030B0009909AA09BB09883E9340A105B10570F39F
:1030C00021E0C21AD108E108F10888EE880E83E0F9
:1030D000981EA11CB11CC114D104E104F10419F71C
:1030E000DDCFFF90EF90DF90CF90BF90AF909F909B
:1030F0008F9008951F920F920FB60F9211242F9365
:103100003F938F939F93AF93BF938091D2059091FC
:10311000D305A091D405B091D5053091CD0523E01C
:10312000230F2D3720F40196A11DB11D05C026E8FF
:10313000230F0296A11DB11D2093CD058093D205CA
:103140009093D305A093D405B093D5058091CE0577
:103150009091CF05A091D005B091D1050196A11D08
:10316000B11D8093CE059093CF05A093D005B09369
:10317000D105BF91AF919F918F913F912F910F906A
:103180000FBE0F901F901895CF93DF93EC018D81A8
:103190009E81DC01ED91FC910084F185E02D099583
:1031A0001816190654F48D819E81DC01ED91FC9175
:1031B0000284F385E02D0995EACFDF91CF91089540
:1031C0008F929F92AF92BF92CF92DF92EF92FF9237
:1031D000CF93DF93EC018FB7F8948090D205909055
:1031E000D305A090D405B090D5058FBF6B01E12C1D
:1031F000F12C8D819E81DC01ED91FC910284F3859F
:10320000E02D099597FF16C02FB7F8948091D2054D
:103210009091D305A091D405B091D5052FBF881901
:103220009909AA09BB098C159D05AE05BF0508F3D0
:103230008FEF9FEFDF91CF91FF90EF90DF90CF90D6
:10324000BF90AF909F908F900895FC0123813481AF
:103250002627022E2295207F2025032E322F22950D
:103260002F700226269532272327220F220F220FA6
:103270002025348323830895CF93DF9380E795E05F
:103280000E94451386E795E00E944513C8EBD5E000
:103290002697CE010E94451385E0CC37D807C1F7A9
:1032A000DF91CF910895CF93DF9388EC94E0109253
:1032B000CB041092CA0448EE53E060E070E0409303
:1032C000CC045093CD046093CE047093CF0420E2DD
:1032D00031E03093C9042093C8042DEC30E03093E2
:1032E000D5042093D4042CEC30E03093D704209301
:1032F000D60428EC30E03093D9042093D80429EC8C
:1033000030E03093DB042093DA042AEC30E0309391
:10331000DD042093DC042EEC30E03093DF042093B6
:10332000DE041092E1041092E2041092E304109281
:10333000E40410927B0410927A0440937C0450932E
:103340007D0460937E0470937F0420E531E0309328
:103350007904209378042FEF3FEF30938504209376
:1033600084041092650590936B0580936A05109212
:103370006C0510926D0590936F0580936E05CCE7F8
:10338000D5E063E074E0CE010E949C13269685E0B0
:10339000C83BD807B1F763E074E086E795E00E9488
:1033A0009C1363E074E080E795E0DF91CF910C948B
:1033B0009C13CF93DF93CDB7DEB7C656D1090FB6B6
:1033C000F894DEBF0FBECDBF789484B5826084BD13
:1033D00084B5816084BD85B5826085BD85B5816019
:1033E00085BD80916E00816080936E001092810097
:1033F0008091810082608093810080918100816052
:103400008093810080918000816080938000809112
:1034100091008260809391008091910081608093FF
:103420009100809190008160809390008091C10014
:1034300084608093C1008091C10082608093C1004C
:103440008091C10081608093C1008091C300816040
:103450008093C3008091C00082608093C0008091FF
:10346000C20081608093C20080917A008460809362
:103470007A0080917A00826080937A0080917A004D
:10348000816080937A0080917A00806880937A00CE
:10349000109277041092B8051092B9058091D70068
:1034A00081608093D70080EA8093D80089B58061DD
:1034B00089BD89B5826089BD09B400FEFDCF61E098
:1034C00070E080E090E00E9440188091D8008F7CEE
:1034D00080618093D8008091E000807F8093E0003D
:1034E0008091E1008E7E8093E1008DE08093E20088
:1034F000559A209A0E94F603FF24F39488EE482EF2
:1035000083E0582E612C712C95E7C92E91E0D92EBD
:1035100025E6222E25E0322E8091CC05811137C17F
:1035200063E074E0CE018F599F4F0E949C138091FD
:10353000D80581110FC069EF73E088E794E00E941D
:1035400088178091D6059091D70501969093D7055D
:103550008093D6058091D6059091D70545977CF14B
:1035600063E074E088E794E00E949D1780EA96E0AB
:103570000E94640D86E696E00E94640DBE016F59BC
:103580007F4FCE0101960E94821340E0BE016F5F23
:103590007F4FCE018B5A9F4F0E94E20FBE016B5AA4
:1035A0007F4FCE018F599F4F0E94FA0ECE018B5A4A
:1035B0009F4F0E944513CE0101960E9445131C8225
:1035C0001B824D825E826F827886DA82C9823E8655
:1035D0002D861A8A1B8A1C8A64E176E0CE018B5AFA
:1035E0009F4F0E944A13BE016B5A7F4FCE01019636
:1035F0000E946B10CE018B5A9F4F0E944513CE0143
:1036000001960E94A80D8B89882359F0CE0101965E
:103610000E949203682FCE018F599F4F0E94CF0FB7
:10362000EECF68EE73E080E090E00E944018A7962D
:103630008EAD9FADA797892B09F49DC0A396EEADE3
:10364000FFADA3978081882309F495C0F092D80537
:10365000CE018F599F4F0E949A0E63E074E088E775
:1036600094E00E949D1763ED75E088E794E00E9466
:103670006417CE018F599F4F0E94770D60EA75E065
:1036800088E794E00E946417BE016F597F4FCE0116
:103690008B5A9F4F0E94821340E0BE016B5A7F4FAE
:1036A000CE01855A9F4F0E94E20FBE01655A7F4F9F
:1036B000CE018F599F4F0E94FA0ECE01855A9F4F1F
:1036C0000E944513CE018B5A9F4F0E944513F092E2
:1036D000CC050E94E8034BE050E065E671E088EC21
:1036E00094E00E94B91664E670E080E090E00E94E9
:1036F00040186BEF73E088EC94E00E949D1788EC13
:1037000094E00E941E186BEF73E088EC94E00E9436
:103710009D1741E050E062E074E088EC94E00E9484
:10372000B9168FB7F8948090D2059090D305A090E9
:10373000D405B090D5058FBF2FB7F8948091D205EE
:103740009091D305A091D405B091D5052FBF8819CC
:103750009909AA09BB09803D9740A105B10558F414
:1037600088EC94E00E941417892B31F388EC94E0E4
:103770000E94F216E1CFDA82C982CE0101960E9440
:10378000140DCE018F599F4F0E9445137DC088E7CD
:1037900094E00E9415138C010F3F8FEF180709F476
:1037A00066C08091D90581110CC00E37110519F43E
:1037B000F092D9055CC0602F88EC94E00E94D2178B
:1037C00056C00033110559F440E051EE60E070E05E
:1037D00088EC94E00E94180B64E074E00DC00133A3
:1037E000110579F440E052EC61E070E088EC94E07F
:1037F0000E94180B67E174E088E794E00E949D172F
:1038000034C00233110559F440E950ED63E070E033
:1038100088EC94E00E94180B6BE274E0EDCF033368
:10382000110559F440E251EA67E070E088EC94E059
:103830000E94180B6FE374E0DFCF0E37110559F4C7
:103840004BE050E065E671E088EC94E00E94B91628
:1038500063E574E0D1CF6EE788EC94E00E94D21764
:10386000602F88EC94E00E94D2171092D90588EC62
:1038700094E00E94F2168F3F2FEF920729F0682FF5
:1038800088E794E00E9422120E94201745CEFC0196
:1038900088279927E89421912032E9F3293010F004
:1038A0002E30C8F32B3241F02D3239F4689404C025
:1038B0000E94751C820F911D219120532A30C0F364
:1038C0001EF4909581959F4F0895FB01DC010590B2
:1038D0000D920020E1F70895FC0105900020E9F722
:1038E000809590958E0F9F1F08957AE0979F902D59
:1038F000879F802D910D1124089591110C94861CA1
:10390000803219F089508550C8F708959927882783
:1039100008952F923F924F925F926F927F928F9273
:103920009F92AF92BF92CF92DF92EF92FF920F934E
:103930001F93CF93DF93CDB7DEB7CA1BDB0B0FB658
:10394000F894DEBF0FBECDBF09942A883988488815
:103950005F846E847D848C849B84AA84B984C884AB
:10396000DF80EE80FD800C811B81AA81B981CE0FA2
:10397000D11D0FB6F894DEBF0FBECDBFED01089587
:10398000A1E21A2EAA1BBB1BFD010DC0AA1FBB1F63
:10399000EE1FFF1FA217B307E407F50720F0A21BD5
:1039A000B30BE40BF50B661F771F881F991F1A9442
:1039B00069F760957095809590959B01AC01BD016C
:1039C000CF010895EE0FFF1F0590F491E02D0994AB
:1039D0000F931F93CF93DF938230910510F482E011
:1039E00090E0E091DC05F091DD0520E030E0A0E022
:1039F000B0E0309719F1408151810281138148175D
:103A00005907C8F08417950769F4109731F012969A
:103A10000C93129713961C9327C00093DC05109308
:103A2000DD0522C02115310519F04217530718F49E
:103A30009A01BD01EF01DF01F801DBCF211531054E
:103A4000F9F0281B390B2430310580F48A819B81E1
:103A50006115710521F0FB019383828304C090936B
:103A6000DD058093DC05FE01329644C0FE01E20FC5
:103A7000F31F8193919322503109398328833AC0EF
:103A80002091DA053091DB05232B41F420910E01C2
:103A900030910F013093DB052093DA0520910C0162
:103AA00030910D012115310541F42DB73EB74091FC
:103AB000100150911101241B350BE091DA05F091B2
:103AC000DB05E217F307A0F42E1B3F0B281739077D
:103AD00078F0AC014E5F5F4F2417350748F04E0F6A
:103AE0005F1F5093DB054093DA058193919302C0E9
:103AF000E0E0F0E0CF01DF91CF911F910F910895A9
:103B0000CF93DF93009709F481C0FC0132971382B1
:103B10001282A091DC05B091DD05109781F420811F
:103B20003181820F931F2091DA053091DB05281730
:103B3000390751F5F093DB05E093DA0567C0ED0135
:103B400020E030E0CE17DF0740F44A815B819E0120
:103B500041155105F1F0EA01F5CFD383C2834081CD
:103B60005181840F951FC817D90759F4888199810D
:103B7000840F951F0296918380838A819B81938312
:103B800082832115310529F4F093DD05E093DC05EE
:103B90003DC0E901FB83EA8349915991C40FD51FC8
:103BA000EC17FD0761F480819181840F951F0296C7
:103BB000E90199838883828193819B838A83E0E0F2
:103BC000F0E012968D919C911397009719F0FD01EA
:103BD000DC01F7CF8D919C9111979D012E5F3F4F96
:103BE000820F931F2091DA053091DB0528173907E2
:103BF00069F4309729F41092DD051092DC0502C0BB
:103C000013821282B093DB05A093DA05DF91CF9186
:103C10000895A0E0B0E0EFE0FEE10C948D1CEC0113
:103C2000009721F4CB010E94E81CB4C0FC01E60F10
:103C3000F71F9C0122503109E217F30708F4A8C0CE
:103C4000D9010D911C91119706171707B0F0053097
:103C5000110508F49BC0C80104978617970708F45C
:103C600095C002501109061B170B019311936D9318
:103C70007C93CF010E94801D89C05B01A01AB10A0C
:103C80004C01800E911EA091DC05B091DD05612CE8
:103C9000712CE12CF12C109709F446C08D919C9168
:103CA0001197A815B905B1F56C0142E0C40ED11CFD
:103CB000CA14DB0478F14C018A189B08640142E0C5
:103CC000C40ED11C1296BC9012971396AC91B5E01D
:103CD000CB16D10440F0B282A38391828082D901B5
:103CE0006D937C9309C00E5F1F4F800F911FF901E8
:103CF00091838083EB2DFA2FE114F10431F0D70189
:103D00001396FC93EE93129741C0F093DD05E09378
:103D1000DC053CC06816790608F43C017D0112966A
:103D20000D90BC91A02DB7CF8091DA059091DB0565
:103D300088169906E1F466167706C8F480910C019E
:103D400090910D01009741F48DB79EB740911001FD
:103D500050911101841B950BE817F907C8F4F093F3
:103D6000DB05E093DA05F901718360830FC0CB01B5
:103D70000E94E81C7C01009759F0A801BE010E9436
:103D8000D41ECE010E94801DC70104C0CE0102C016
:103D900080E090E0CDB7DEB7EEE00C94A91C81E0A6
:103DA00090E0F8940C94071FFB01DC0102C0019025
:103DB0000D9241505040D8F70895FB01DC018D91E0
:103DC000019080190110D9F3990B0895FB01DC01D2
:103DD00001900D920020E1F70895FB0151915523C8
:103DE000A9F0BF01DC014D9145174111E1F759F4EC
:103DF000CD010190002049F04D9140154111C9F3CA
:103E0000FB014111EFCF81E090E00197089513E0AD
:103E1000C3E6D3E004C0FE010E94E21C2196C43632
:083E2000D107C9F7F894FFCFA8
:103E2800FFFFFFFF00E10000000000000000DE05CA
:103E38008000585858585858583130300000000001
:103E4800D217B916E3161E181417F2160617000033
:103E580000006217B9168F034411621762176217C0
:103E6800000000006217B9168F034411000000001B
:103E780022126712ED12381243121513F11200C103
:103E88008081000000FF00000558585858587FF9F5
:103E98000000000000CB03B9168F038E03AA03921B
:103EA800034F170D0A002920006977696E666F2095
:103EB800776C616E30207363616E207C2067726559
:103EC8007020220022202D4135207C2067726570E9
:103ED80020456E6372797074696F6E207C206375FB
:103EE80074202D6632202D64223A22006E6F6E6592
:103EF80000575041320070736B32005750410070C8
:103F0800736B00574550007765700059554E004156
:103F18005000626C696E6B2D73746172742031305D
:103F28003000686F73746E616D6520007563692079
:103F38007365742073797374656D2E407379737427
:103F4800656D5B305D2E686F73746E616D653D27BE
:103F580000756369207365742061726475696E6F9A
:103F68002E4061726475696E6F5B305D2E616363AC
:103F78006573735F706F696E745F776966695F6E8A
:103F8800616D653D270075636920736574207769E5
:103F980072656C6573732E40776966692D69666111
:103FA80063655B305D2E656E6372797074696F6EE0
:103FB8003D27007563692073657420776972656CA5
:103FC8006573732E40776966692D69666163655B01
:103FD800305D2E6D6F64653D27737461270A007527
:103FE80063692073657420776972656C6573732ED5
:103FF80040776966692D69666163655B305D2E731C
:104008007369643D27007563692073657420776957
:1040180072656C6573732E40776966692D69666190
:1040280063655B305D2E6B65793D2700756369209C
:1040380073657420776972656C6573732E72616439
:10404800696F302E6368616E6E656C3D27617574AB
:104058006F27007563692073657420776972656CD2
:104068006573732E726164696F302E636F756E7439
:1040780072793D27007563692064656C65746520F5
:104088006E6574776F726B2E6C616E2E69706164E9
:104098006472007563692064656C657465206E657B
:1040A80074776F726B2E6C616E2E6E65746D6173B2
:1040B8006B0075636920736574206E6574776F7221
:1040C8006B2E6C616E2E70726F746F3D276468631F
:1040D8007027006563686F202D6520220022207CF0
:1040E8002070617373776420726F6F7400756369F1
:1040F80020636F6D6D697400626C696E6B2D7374EB
:104108006F7000776966692000FE002A002F6269D7
:104118006E2F617368002D63002E000A7265736547
:10412800740A0A0053706565642073657420746F9F
:1041380020353736303000537065656420736574F8
:1041480020746F203131353230300053706565642A
:104158002073657420746F2032353030303000534E
:10416800706565642073657420746F203530303055
:1041780030300053656E64696E67206272696467E7
:104188006527732073687574646F776E20636F6D2D
:064198006D616E64000081
:00000001FF
