:100000000C94BC000C94E4000C94E4000C94E40008
:100010000C94E4000C94E4000C94E4000C94E400D0
:100020000C94E4000C94E4000C9466050C94D80540
:100030000C94E4000C94E4000C94E4000C94E400B0
:100040000C94E4000C94E4000C94E4000C94E400A0
:100050000C94E4000C94E4000C94E4000C941C0553
:100060000C94E4000C9430080C940A080C94E400FE
:100070000C94E4000C94E4000C94E4000C94E40070
:100080000C94E4000C94E4000C94E4000C94E40060
:100090000C94E4000C94E4000C94E4000C94E40050
:1000A0000C94E4000C94E4000C94E400080B0002AF
:1000B0000202010009040000010202000005240000
:1000C0001001052401010104240206052406000193
:1000D0000705810310004009040100020A00000026
:1000E00007050202400000070583024000000403E8
:1000F000090412010002EF02014041234180000186
:100100000102030141726475696E6F204C4C43001B
:1001100041726475696E6F2059756E0000000000B1
:10012000250028002B002E003100000000002400D4
:1001300027002A002D0030000404040404030405F1
:100140000202020204030202020206060606060674
:10015000040402020204040408020110408040105A
:1001600020408040800802040180402010020110DD
:10017000801020404020620811241FBECFEFDAE03B
:10018000DEBFCDBF11E0A0E0B1E0ECECF4E102C0D5
:1001900005900D92A83BB107D9F722E0A8EBB1E09A
:1001A00001C01D92AB3CB207E1F710E0CCEBD0E010
:1001B00004C02197FE010E94590ACB3BD107C9F721
:1001C0000E949F080C94640A0C940000CF92DF9266
:1001D000EF92FF926B017C01E091EE01F091EF0153
:1001E00082E08083C11481EED806E104F104B1F00D
:1001F00060E079E08DE390E0A70196010E94370A64
:10020000DA01C9010197A109B109B695A79597959A
:1002100087959C01211580E13807B8F0E091EE0147
:10022000F091EF01108260E874E88EE190E0A701A0
:1002300096010E94370ADA01C9010197A109B109A3
:10024000B695A795979587959C01E091EA01F09165
:10025000EB013083E091EC01F091ED0120831092ED
:10026000F601E091F201F091F30186E08083E091E4
:10027000F001F091F101808180618083E091F001D3
:10028000F091F101808188608083E091F001F0912C
:10029000F101808180688083E091F001F091F101AB
:1002A00080818F7D8083FF90EF90DF90CF900895C5
:1002B000CF93DF93E4E6F1E09491E5E4F1E024915B
:1002C000222361F130E0220F331FF901E65DFE4F7A
:1002D000A591B491F901E45EFE4FC591D4918111CD
:1002E00009C02FB7F8948C91909589238C93E8815D
:1002F0009E230BC0823061F42FB7F8948C91392F74
:10030000309583238C93E8819E2B98832FBF06C062
:100310008FB7F894EC919E2B9C938FBFDF91CF9178
:1003200008952091DD01211103C08FEF9FEF089503
:100330005FB7F89422E02093E9002091F20030E0CA
:100340001216130614F421E030E0422FFC0184E67B
:10035000415038F028988093DC019091F1009193FE
:10036000F7CF2115310521F08091F200882319F093
:100370005FBFC90108958BE68093E800F9CF2FB7DE
:10038000F89483E08093E9009091E800892F8072CF
:1003900095FF04C09091F20080E4891B2FBF08955F
:1003A0008091D40181110DC082E08093D00184E05E
:1003B0008093D1011092D3011092D20181E08093F9
:1003C000D40180ED91E008953FB7F8948091CC017D
:1003D0009091CD01A091CE01B091CF0126B5A89BFF
:1003E00005C02F3F19F00196A11DB11D3FBFBA2FC7
:1003F000A92F982F8827820F911DA11DB11DBC0127
:10040000CD0142E0660F771F881F991F4A95D1F7EB
:100410000895CF92DF92EF92FF920E94E4016B0168
:100420007C010E94E401DC01CB018C199D09AE091D
:10043000BF09883E9340A105B10598F3FF90EF9066
:10044000DF90CF9008954091BA015091BB01209167
:10045000B8013091B90142175307B4F49091E80004
:100460009570E1F39091E80092FD19C08093F1003E
:100470008091BA019091BB0101968F739927892BC6
:1004800019F48EEF8093E8008091BA019091BB013E
:1004900001969093BB018093BA0181E0089580E0BA
:1004A0000895DF92EF92FF920F931F93CF93DF9304
:1004B000D82EF92EE42E062F10E0C8010196880FE1
:1004C0000E94230283E00E942302CD2DDF2D0C0F1A
:1004D0001D1FC017D10789F0E7FE03C0FE018491FC
:1004E00001C088810E942302F82E80E00E9423022E
:1004F0008F2121968111EDCF01C081E0DF91CF9155
:100500001F910F91FF90EF90DF900895DF92EF928F
:10051000FF920F931F93CF93DF93D82E8A017B0115
:10052000E40EF51EEB01CE15DF0571F0D7FE03C01A
:10053000FE01849101C088810E94230221968111CD
:10054000F2CF8FEF9FEF01C0C801DF91CF911F91D4
:100550000F91FF90EF90DF9008950F931F93CF932B
:10056000DF931F92CDB7DEB782E0898342E450E08B
:100570006CEA70E080E80E9486020E94D001DC01F3
:1005800012960D911C9113970115110589F0D80150
:10059000ED91FC910280F381E02DBE016F5F7F4FF2
:1005A000C801099597FD04C0F80100851185ECCFBD
:1005B00089810F90DF91CF911F910F910895615024
:1005C00030F02091F100FC0120830196F8CF2898AB
:1005D00084E68093DC010895CF92DF92EF92FF9240
:1005E0000F931F93CF93DF936C017A018B01C0E0CF
:1005F000D0E0CE15DF0581F0D8016D918D01D601D7
:10060000ED91FC910190F081E02DC6010995892BB7
:1006100011F02196EECF7E01C701DF91CF911F919E
:100620000F91FF90EF90DF90CF900895FC01538DD4
:10063000448D252F30E0842F90E0821B930B5417BC
:1006400010F0CF96089501970895FC01918D828D49
:10065000981761F0828DDF01A80FB11D5D968C9116
:10066000928D9F5F9F73928F90E008958FEF9FEF21
:100670000895FC01918D828D981731F0828DE80FDD
:10068000F11D858D90E008958FEF9FEF0895FC0197
:10069000918D228D892F90E0805C9F4F821B910964
:1006A0008F73992708958EED91E00E94470321E012
:1006B000892B09F420E0822F0895FC01848DDF014D
:1006C000A80FB11DA35ABF4F2C91848D90E00196C5
:1006D0008F739927848FA689B7892C93A089B189B4
:1006E0008C9180648C93938D848D981306C00288BE
:1006F000F389E02D80818F7D80830895EF92FF92B2
:100700000F931F93CF93DF93EC0181E0888F9B8D34
:100710008C8D981305C0E889F989808185FD24C0F6
:10072000F62E0B8D10E00F5F1F4F0F731127E02E79
:100730008C8DE8120CC00FB607FCFACFE889F98956
:10074000808185FFF5CFCE010E945D03F1CF8B8DB7
:10075000FE01E80FF11DE35AFF4FF0820B8FEA898B
:10076000FB898081806207C0EE89FF896083E88908
:10077000F98980818064808381E090E0DF91CF916E
:100780001F910F91FF90EF900895CF93DF93EC01AD
:10079000888D8823C9F0EA89FB89808185FD05C0A1
:1007A000A889B9898C9186FD0FC00FB607FCF5CFDB
:1007B000808185FFF2CFA889B9898C9185FFEDCF23
:1007C000CE010E945D03E7CFDF91CF91089580E0D5
:1007D00090E0892B29F00E94530381110C940000B2
:1007E00008958F929F92AF92BF92CF92DF92EF9235
:1007F000FF920F931F93CF93DF936C017B018A01CC
:1008000080910B01882309F458C08091DD01882371
:1008100009F453C08091BE0180FF05C08091E000C3
:1008200082608093E000E801B12C8AEFA82E93E06B
:10083000892E2AE3922E209711F4BB20B9F10E9451
:10084000BF01811106C0AA94AA20B9F10E94090231
:10085000F2CF282F30E0C217D3070CF48C2F9FB7AC
:10086000F8948092E9002091E80025FF1DC0282F10
:1008700030E0C21BD30BF701815020F0419140932F
:10088000F100FACFE20EF31EBB2019F09092E800BF
:100890000AC08091E80085FD07C09092E800BB2463
:1008A000B394209709F0B12C9FBFC5CF5D9884E623
:1008B0008093BC011016110644F081E090E0F6012F
:1008C0009383828380E090E001C0C801DF91CF91E3
:1008D0001F910F91FF90EF90DF90CF90BF90AF905E
:1008E0009F908F900895CF93DF931F92CDB7DEB77F
:1008F0006983DC01ED91FC910280F381E02D41E000
:1009000050E0BE016F5F7F4F09950F90DF91CF914F
:10091000089583E08093E9008091F200882319F024
:100920008AE38093E80008950E94BF0190E0089553
:10093000CF93DF931F92CDB7DEB7FC0184859585F9
:1009400097FD05C02FEF3FEF358724870BC0CE0101
:1009500001960E949101019719F4898190E002C0EB
:100960008FEF9FEF0F90DF91CF9108950F931F931B
:10097000CF93DF931F92CDB7DEB78C01FC01848546
:10098000958597FF0EC0CE0101960E9491010197B7
:1009900019F4898190E002C08FEF9FEFF8019587ED
:1009A0008487F801848595850F90DF91CF911F9101
:1009B0000F910895FC018485958597FD0BC09FB725
:1009C000F89482E08093E9008091F2009FBF90E06C
:1009D000019608959FB7F89482E08093E900809192
:1009E000F2009FBF90E00895089580E090E00895A0
:1009F000CF93DF93009779F0FC0101900020E9F795
:100A00003197AF01481B590BBC018BE792E00E9464
:100A1000F103EC0102C0C0E0D0E042E050E063E44A
:100A200071E08BE792E00E94F1038C0F9D1FDF9134
:100A3000CF9108950E945F0A1F920F920FB60F92F6
:100A400011242F933F938F939F93AF93BF938091E4
:100A5000C8019091C901A091CA01B091CB01309118
:100A6000C70123E0230F2D3720F40196A11DB11DEE
:100A700005C026E8230F0296A11DB11D2093C701D2
:100A80008093C8019093C901A093CA01B093CB0190
:100A90008091CC019091CD01A091CE01B091CF0178
:100AA0000196A11DB11D8093CC019093CD01A0931F
:100AB000CE01B093CF01BF91AF919F918F913F91A4
:100AC0002F910F900FBE0F901F9018951F920F92AD
:100AD0000FB60F9211248F939F938091E100909114
:100AE000E100937F9093E10083FF0FC01092E90033
:100AF00091E09093EB001092EC0092E39093ED0064
:100B00001092DD0198E09093F00082FF20C093E006
:100B10009093E9009091F200992319F09AE3909351
:100B2000E8009091BC01992339F09091BC0191505B
:100B30009093BC01992389F19091DC01992339F0BC
:100B40009091DC0191509093DC01992341F184FF55
:100B500010C08091E2008E7E81608093E2008091DF
:100B6000E1008F7E8093E1008091BE018E7E8061E6
:100B700011C080FF16C08091E2008E7E806180935C
:100B8000E2008091E1008E7E8093E1008091BE01C1
:100B90008E7E81608093BE0104C05D9ACDCF289A7D
:100BA000D6CF9F918F910F900FBE0F901F901895E9
:100BB0001F920F920FB60F921124CF92DF92EF92F5
:100BC000FF920F931F932F933F934F935F936F93D6
:100BD0007F938F939F93AF93BF93EF93FF93CF93A5
:100BE000DF93CDB7DEB76C97DEBFCDBF1092E900C3
:100BF0008091E80083FFEFC168E0CE0145960E9436
:100C0000DF0282EF8093E8008D8987FF05C0909115
:100C1000E80090FFFCCF03C09EEF9093E800982F70
:100C2000907609F0C6C09E894F89588D2F89F88C1F
:100C300091110CC0803829F48091BF018093F1009C
:100C400002C01092F1001092F100BEC1913051F437
:100C50008111BAC14130510509F0B6C18091BF017F
:100C60008D7F0BC0933061F48111AEC141305105CD
:100C700009F0AAC18091BF0182608093BF01A4C125
:100C8000953049F48091E80080FFFCCF822F806886
:100C90008093E30099C1963009F05EC00B8D1C8DE6
:100CA00022E01092E9001092BB011092BA01F212F8
:100CB00032C01092B9011092B8010E94AD0299E0C1
:100CC000BE016F5F7F4FDB01E92F1D92EA95E9F7C7
:100CD0009983FA8291E09E8390EA98879AEF9987A8
:100CE0002091BA013091BB01275F3F4F3C832B839A
:100CF0008D831092E9001092BB011092BA011093FB
:100D0000B9010093B80149E050E080E00E948602FA
:100D10000E94AD0259C11093B9010093B8010E941D
:100D2000D001DC0112960D911C911397011511054C
:100D300009F4BFC0D801ED91FC910480F581E02D4C
:100D4000BE016B5E7F4FC8010995009709F0ACC0EA
:100D5000F80100851185EACF973009F439C1983040
:100D600021F481E08093F1002FC1993009F02CC16A
:100D7000837009F02DC1E9E1F1E081E031E096E313
:100D80002081211109C08EE78093EA001092EA00C9
:100D90008F898093DD0118C18093E9003093EB00C7
:100DA00021912093EC009093ED008F5F873041F705
:100DB000EACF8B8D9C8D1092E9001092BB011092AE
:100DC000BA019093B9018093B801898D811150C007
:100DD0008E899D89913A49F4813209F0F9C047E042
:100DE00050E064E071E080E0B8C0913209F0F0C0FA
:100DF000833269F48F89988DA0E0B0E08093000180
:100E000090930101A0930201B0930301DDC08032F1
:100E100069F48091E80082FFFCCF67E084E091E014
:100E20000E94DF028BEF8093E80006C0823209F057
:100E3000CBC08F8980930B018091BD01811103C0CC
:100E4000E0E0F8E002C0EEEFFAE08091040190915A
:100E50000501A0910601B0910701803B9440A105D6
:100E6000B10509F07DC080910B0180FF95C078C06D
:100E70000E94D001DC0112960D911C91139701156F
:100E8000110509F4A5C0D801ED91FC910190F08104
:100E9000E02DBE016B5E7F4FC8010995811194C0A2
:100EA000F80100851185EBCF181619060CF48CC0DB
:100EB0008FC0F1E0FF1609F447C0F3E0FF1288C0CD
:100EC0008F89882309F443C0823029F440E86BE01D
:100ED00080E191E006C0813051F440E86BE084E0AD
:100EE00091E00E945102882309F472C06DC08330E2
:100EF00009F06EC00E94D001DC011296ED90FC90CA
:100F000013978E010F5F1F4F6801E114F10479F010
:100F1000D701ED91FC910680F781E02DB801C70162
:100F20000995080F111DF701E084F184EECFD80177
:100F30001C92F60101900020E9F73197BF016C196E
:100F40007D0940E0C601CDCF62EF70E002C06EEED9
:100F500070E0FB01449150E080E80E94860234C0BA
:100F60000FB6F894A8958091600088618093600026
:100F7000109260000FBEA895EE3F2AE0F20739F00C
:100F80008091FE0A9091FF0A918380831DC0109288
:100F9000FF0A1092FE0A18C0EE3F8AE0F80731F00F
:100FA000808191819093FF0A8093FE0A87E797E7FB
:100FB000918380839BE088E10FB6F894A895809395
:100FC00060000FBE909360008EEF8093E80003C036
:100FD00081E28093EB006C960FB6F894DEBF0FBEF3
:100FE000CDBFDF91CF91FF91EF91BF91AF919F91D5
:100FF0008F917F916F915F914F913F912F911F91B1
:101000000F91FF90EF90DF90CF900F900FBE0F9059
:101010001F9018951F920F920FB60F9211242F93C5
:101020003F934F935F936F937F938F939F93AF9370
:10103000BF93EF93FF938EED91E00E945D03FF91CC
:10104000EF91BF91AF919F918F917F916F915F9140
:101050004F913F912F910F900FBE0F901F901895B9
:101060001F920F920FB60F9211242F938F939F937D
:10107000EF93FF93E091EE01F091EF018081E09119
:10108000F401F091F50182FD12C090818091F70189
:101090008F5F8F732091F801821751F0E091F70173
:1010A000F0E0E252FE4F958F8093F70101C08081FE
:1010B000FF91EF919F918F912F910F900FBE0F9005
:1010C0001F901895EEEDF1E01382128288EE93E006
:1010D000A0E0B0E084839583A683B78323E231E068
:1010E000318320832DEC30E0358724872CEC30E0F1
:1010F0003787268728EC30E0318B208B29EC30E0D5
:10110000338B228B2AEC30E0358B248B2EEC30E0B5
:10111000378B268B118E128E138E148EEBE7F2E036
:101120001382128284839583A683B78385E391E03B
:10113000918380838FEF9FEF9587848708957894BC
:1011400084B5826084BD84B5816084BD85B58260CC
:1011500085BD85B5816085BD80916E00816080937D
:101160006E001092810080918100826080938100E6
:1011700080918100816080938100809180008160F6
:101180008093800080919100826080939100809193
:1011900091008160809391008091900081608093A4
:1011A00090008091C10084608093C1008091C10053
:1011B00082608093C1008091C10081608093C100F2
:1011C0008091C30081608093C3008091C0008260E1
:1011D0008093C0008091C20081608093C2008091A2
:1011E0007A00846080937A0080917A008260809394
:1011F0007A0080917A00816080937A0080917A00F1
:10120000806880937A001092DD011092BF011092E5
:10121000BE018091D70081608093D70080EA8093DF
:10122000D80089B5806189BD89B5826089BD09B45E
:1012300000FEFDCF0E9409028091D8008F7C806162
:101240008093D8008091E000807F8093E0008091BF
:10125000E1008E7E8093E1008DE08093E200559A5C
:10126000209AEEEFFFE7859194918B3F9C4D19F406
:1012700081E08093BD018FEF9FEF90938802809370
:10128000870260E970ED83E090E00E94E60081E073
:101290000E945801DD24D39404EF11E084E6E82E87
:1012A000F12C8091C5019091C601892B91F18FB7E6
:1012B000F8944091C8015091C9016091CA017091A0
:1012C000CB018FBF8091C3019091C401092E000C06
:1012D000AA0BBB0B84179507A607B707D1F02FB74A
:1012E000F8946091C8017091C9018091CA019091F0
:1012F000CB012FBF2091C5013091C601032E000CF8
:10130000440B550B0E94370A672B682B692B09F495
:101310008EC08BE792E00E949804EC01CF3F8FEFE4
:10132000D80709F474C08091C20181110CC0CE3776
:10133000D10519F4D092C2016AC06C2F8EED91E0F4
:101340000E947E0364C0C033D10549F460E071EEB1
:1013500080E090E00E94E60086E491E00BC0C1339B
:10136000D10559F460E072EC81E090E00E94E60063
:1013700089E591E00E94F80448C0C233D10549F4E0
:1013800060E970ED83E090E00E94E6008DE691E078
:10139000F1CFC333D10549F460E271EA87E090E010
:1013A0000E94E60081E891E0E5CFC433D10529F43D
:1013B000F092C601E092C50128C0C533D10529F4D9
:1013C0001093C6010093C50120C0C633D10529F48E
:1013D0001092C6011092C50118C0CE37D10559F43C
:1013E0004BE050E06CE071E08EED91E00E94EC0289
:1013F00085E991E0BFCF6EE78EED91E00E947E031C
:101400006C2F8EED91E00E947E031092C2018EED52
:1014100091E00E9425038F3F2FEF920729F0682F5C
:101420008BE792E00E9473040E94E7033ACF81E0C9
:101430002091C0013091C101232B09F080E0282FB9
:1014400030E03093C1012093C0010E9458012FB7B2
:10145000F8948091C8019091C901A091CA01B091FE
:10146000CB012FBF9093C4018093C30152CFA1E25F
:101470001A2EAA1BBB1BFD010DC0AA1FBB1FEE1F0E
:10148000FF1FA217B307E407F50720F0A21BB30B59
:10149000E40BF50B661F771F881F991F1A9469F7D5
:1014A00060957095809590959B01AC01BD01CF0131
:1014B0000895EE0FFF1F0590F491E02D099481E04F
:0C14C00090E0F8940C94640AF894FFCFBC
:1014CC00FFFFFFFF00E1000000000000FF0000052F
:1014DC0058585858587FF90000C18081000000000E
:1014EC000000007E03EC021603C5034703250339F5
:1014FC0003000000007304F10394048904DA0498D7
:10150C0004B6040D0A00537065656420736574207D
:10151C00746F203537363030005370656564207336
:10152C00657420746F203131353230300053706562
:10153C0065642073657420746F2032353030303020
:10154C000053706565642073657420746F203530AA
:10155C00303030300053656E64696E67206272699A
:10156C0064676527732073687574646F776E206386
:08157C006F6D6D616E640000EB
:00000001FF
